S01400004152544D46435553696D756C2E73726563F4
S11300000C9448000C9465000C9465000C946500F5
S11300100C9465000C9465000C9465000C945001DC
S11300200C9465000C9465000C9465000C946500B8
S11300300C9465000C94FF000C9465000C9465000E
S11300400C9465000C9465000C9465000C94650098
S11300500C9465004E414E494E495459494E46CD83
S1130060CCCC3D0AD7233C17B7D13877CC2B32956B
S113007095E6241FB14F0A000020410000C8420049
S1130080401C4620BCBE4CCA1B0E5AAEC59D740013
S113009011241FBECFE5D8E0DEBFCDBF12E0A0E63D
S11300A0B0E0ECE1F6E102C005900D92A030B1079A
S11300B0D9F723E0A0E0B2E001C01D92AB37B2074C
S11300C0E1F70E94D7040C940C0B0C94000010BCB4
S11300D08CE089B98AB188698AB986E880BD0895B7
S11300E05D9BFECF8CB90895CF93DF93EC0103C0E1
S11300F021960E94700088818111FACFDF91CF91FF
S113010008952FE38DE093E0215080409040E1F783
S113011000C0000089E690E00E94740086E790E049
S11301200E9474008CE790E00E94740086E790E0DF
S11301300E94740082E890E00E94740086E790E0D8
S11301400E9474008DE890E00E94740086E790E0BD
S11301500E94740088E990E00E94740086E790E0B1
S11301600E9474008BEA90E00E9474000895EF925C
S1130170FF920F931F93CF93DF93CDB7DEB76E97A4
S11301800FB6F894DEBF0FBECDBF7C018091610035
S11301908F93809160008F9385EB90E09F938F9372
S11301A08E010F5F1F4F1F930F930E945805C801C4
S11301B00E94740087EA91E60197F1F700C00000FD
S11301C0C7010E94740083EC99E00197F1F700C025
S11301D000008AE10E9470000F900F900F900F9022
S11301E00F900F906E960FB6F894DEBF0FBECDBF82
S11301F0DF91CF911F910F91FF90EF9008951F927F
S11302000F920FB60F9211242F933F938F939F93C6
S1130210EF93FF938CB1809306028D3519F48DE032
S113022080930602809106028A30E9F08D3029F429
S1130230909103029F5F90930302209104023091F6
S11302400502F901EA5EFD4F80832E3F31053CF43F
S11302502F5F3F4F309305022093040204C0109295
S1130260050210920402FF91EF919F918F913F91AB
S11302702F910F900FBE0F901F901895809101023F
S1130280909102028E3F910534F4019690930202FC
S113029080930102089510920202109201020895BF
S11302A01F920F920FB60F9211242F933F934F93E7
S11302B05F936F937F938F939F93AF93BF93EF93CA
S11302C0FF9385B58E7F85BD809107028B3008F43E
S11302D09CC0809108028F5F8093080210920702ED
S11302E0809108028C3338F0809109028F5F8093EB
S11302F0090210920802809109028C3338F080912F
S11303000A028F5F80930A021092090280910A0206
S1130310883110F010920A0290910A0280916800CC
S1130320981328C09091090280916700981322C005
S1130330909108028091660098131CC0809165001A
S11303408823C1F01092650083EC90E00E94740051
S113035082E080930B0285B38F7D85BB8FE493ECA1
S11303600197F1F700C0000081E30E94700081E072
S11303708093000290910A0280916400981322C035
S1130380909109028091630098131CC080916200CF
S11303908823C1F01092620086ED90E00E94740000
S11303A083E080930B0285B38F7D85BB8FE493EC50
S11303B00197F1F700C0000082E30E94700082E020
S11303C080930002209108029091090280910A0210
S11303D01F922F931F929F931F928F9389EE90E009
S11303E09F938F9385E193E09F938F930E94580589
S11303F085E193E00E9474008DB79EB70A960FB60C
S1130400F8949EBF0FBE8DBF05C0809107028F5F19
S1130410809307021EBC83EC8BBD80E58ABD8EB53C
S113042081608EBDFF91EF91BF91AF919F918F91AC
S11304307F916F915F914F913F912F910F900FBEDC
S11304400F901F90189580930A02609309024093BD
S113045008020895809368006093670040936600E3
S1130460089580936400609363000895CF92DF92AF
S1130470EF92FF920F931F93CF93DF93CDB7DEB725
S1130480EE970FB6F894DEBF0FBECDBF8C01FC0112
S11304908081898381818A831B826AEF70E0CE0127
S11304A001960E944705892B09F046C08DEF90E024
S11304B00E947400F80184858EAB85858FAB18AEDD
S11304C0878589AF80898AAF1BAE82898CAF838987
S11304D08DAF1EAECE01CC960E9429056C01CE01D3
S11304E0C9960E9429057C01CE01C6960E94290561
S11304F0A601B7010E9423022091080290910902EB
S113050080910A021F922F931F929F931F928F93A1
S11305108DE091E09F938F937E01F4E0EF0EF11C48
S1130520FF92EF920E945805C7010E9474000FB613
S1130530F894DEBF0FBECDBF69E271E0CE01019633
S11305400E944705892B09F046C08CE291E00E9485
S11305507400F80183818EAB84818FAB18AE8681E1
S113056089AF87818AAF1BAE81858CAF82858DAFC1
S11305701EAECE01CC960E9429056C01CE01C9960F
S11305800E9429057C01CE01C6960E942905A60178
S1130590B7010E942A022091660090916700809121
S11305A068001F922F931F929F931F928F938FE344
S11305B091E09F938F937E01F4E0EF0EF11CFF9284
S11305C0EF920E945805C7010E9474000FB6F89478
S11305D0DEBF0FBECDBF6EE571E0CE0101960E9475
S11305E04705892BB9F581E691E00E947400F80172
S11305F083818EAB84818FAB18AE868189AF87816E
S11306008AAF1BAECE01C9960E9429057C01CE019A
S1130610C6960E942905B7010E9431029091630099
S1130620809164001F929F931F928F9384E791E0BF
S11306309F938F937E01F4E0EF0EF11CFF92EF92F3
S11306400E945805C7010E9474000FB6F894DEBFDB
S11306500FBECDBF6EE871E0C8010E944705892B2B
S1130660F9F4209108029091090280910A021F92E4
S11306702F931F929F931F928F9381E991E09F93F1
S11306808F938E010C5F1F4F1F930F930E94580589
S1130690C8010E94B7000FB6F894DEBF0FBECDBFED
S11306A0EE960FB6F894DEBF0FBECDBFDF91CF91AB
S11306B01F910F91FF90EF90DF90CF900895EF92EC
S11306C0FF920F931F93CF93DF93CDB7DEB7A2971B
S11306D00FB6F894DEBF0FBECDBF58C1E12FF0E0D6
S11306E0E45FFD4F80830E943E011F5F01C010E064
S11306F0E0910102F0910202EA5EFD4F80818032B6
S113070011F08D3059F7E12FF0E0E45FFD4F1082D6
S11307108D3029F4809103028150809303020E945A
S11307203E0168EA71E08CE092E00E944705892B63
S113073099F481E080930B0200E010E004C00E9471
S11307403E010F5F1F4F06301105CCF38091030269
S11307508150809303021AC16CEA71E08CE092E04C
S11307600E944705892B19F043C00E943E01E09185
S11307700102F0910202EA5EFD4F80818D30A9F7FB
S11307802FE38DE093E0215080409040E1F700C0DA
S113079000000E943E018091030281508093030275
S11307A010E00AC0E1E0F0E0EC0FFD1FE10FF11DE5
S11307B080830E943E011F5FE0910102F0910202DA
S11307C0EA5EFD4F80818D3069F78091030281508C
S11307D0809303020E943E01E1E0F0E0EC0FFD1F74
S11307E0E10FF11D1082CE0101960E943602CEC0A7
S11307F062EB71E08CE092E00E944705892B61F086
S113080049C0E1E0F0E0EC0FFD1FE10FF11D808332
S11308100E943E011F5F01C010E0E0910102F091CF
S11308200202EA5EFD4F80818D3059F78091030208
S11308308150809303020E943E01E1E0F0E0EC0F5E
S1130840FD1FE10FF11D108289EB91E00E947400FD
S11308508B858A8F8C858B8F1C8E8E858D8F8F8553
S11308608E8F1F8E898988A38A8989A31AA2CE01B3
S113087080960E9429057C01CE014D960E9429058F
S11308808C01CE014A960E942905A701B8010E9455
S113089023027CC069EC71E08CE092E00E94470581
S11308A0892B61F02CC0E1E0F0E0EC0FFD1FE10FBB
S11308B0F11D80830E943E011F5F01C010E0E091A2
S11308C00102F0910202EA5EFD4F80818D3059F7FA
S11308D0E1E0F0E0EC0FFD1FE10FF11D1082CE010D
S11308E001960E942505AB01BC0184E190E00E94C1
S11308F0A10A8091030281508093030247C06DECEA
S113090071E08CE092E00E944705892B79F581E043
S113091080930B0210E00AC0E1E0F0E0EC0FFD1F51
S1130920E10FF11D80830E943E011F5FE0910102EF
S1130930F0910202EA5EFD4F80818D3069F7E1E0BB
S1130940F0E0EC0FFD1FE10FF11D1082CE010196C6
S11309500E942505AB01BC0188E290E00E94A10A37
S11309608091030281508093030210C061ED71E015
S11309708CE092E00E944705892B41F481E080934A
S11309800B02809103028150809303028091030241
S11309908111ADCEA2960FB6F894DEBF0FBECDBFC7
S11309A0DF91CF911F910F91FF90EF9008958FEFFA
S11309B084BB80E285BB81B38B7F81BB82B38460BF
S11309C082BB0E9467000E94810085B7836085BF57
S11309D08AB780748ABF89B7806189BF8AB78074F7
S11309E08ABF8BB780648BBF789483EC8BBD80E522
S11309F08ABD8EB581608EBD0E945F038091000226
S1130A00813099F480910B02813079F410920002C4
S1130A1085B3806285BB87EA91E60197F1F700C050
S1130A20000085ED91E00E94B700809100028230C1
S1130A3019F780910B028130F9F61092000283308D
S1130A40F1F385B3806285BBD7CF662777270C94F3
S1130A505B07FC0188279927E89421912032E9F368
S1130A60293010F02E30C8F32B3241F02D3239F4F6
S1130A70689404C00E945005820F911D2191205357
S1130A802A30C0F31EF4909581959F4F0895FB0181
S1130A90DC018D91019080190110D9F3990B08950F
S1130AA07AE0979F902D879F802D910D11240895B2
S1130AB0AEE0B0E0EEE5F5E00C94D40A0D891E89B1
S1130AC086E08C831A8309838FEF9FE79E838D834F
S1130AD0AE01475E5F4F6F89788DCE0101960E940B
S1130AE07A05EF81F885E00FF11F10822E96E4E07D
S1130AF00C94F00AABE0B0E0E0E8F5E00C94C60A30
S1130B006C017B018A01FC0117821682838181FFBB
S1130B10CCC1CE0101963C01F6019381F70193FD0E
S1130B20859193FF81917F01882309F4BAC18532AD
S1130B3039F493FD859193FF81917F01853229F4E6
S1130B40B60190E00E94E008E7CF912C212C312CD3
S1130B50FFE1F315D8F08B3279F038F4803279F074
S1130B608332A1F4232D20611DC08D3261F08033C6
S1130B7069F4232D216016C0832D8260382EE32D65
S1130B80E4603E2E2AC0F32DF8601DC037FC2DC052
S1130B9020ED280F2A3040F08E32B9F436FC81C1A2
S1130BA0232D2064322E19C036FE06C08AE0989E9A
S1130BB0200D1124922E11C0EAE02E9E200D112446
S1130BC0222EF32DF0623F2E08C08C3621F4832DA3
S1130BD08068382E02C0883641F4F70193FD859170
S1130BE093FF81917F018111B3CF982F9F7D9554FD
S1130BF0933028F40C5F1F4F9FE399830DC0833615
S1130C0031F0833771F0833509F059C021C0F80100
S1130C10808189830E5F1F4F88248394912C530114
S1130C2013C02801F2E04F0E511CF801A080B180DE
S1130C3036FE03C0692D70E002C06FEF7FEFC5017F
S1130C400E94D5084C018201F32DFF773F2E16C078
S1130C50280122E0420E511CF801A080B18036FE2A
S1130C6003C0692D70E002C06FEF7FEFC5010E94E1
S1130C70CA084C01F32DF0683F2E820133FC1BC0DF
S1130C80822D90E088169906B0F4B60180E290E0D7
S1130C900E94E0082A94F4CFF50137FC859137FED1
S1130CA081915F01B60190E00E94E00821102A942E
S1130CB021E0821A91088114910471F7E8C0843606
S1130CC011F0893641F5F80137FE07C06081718162
S1130CD0828193810C5F1F4F08C060817181072E50
S1130CE0000C880B990B0E5F1F4FF32DFF763F2EE0
S1130CF097FF09C090958095709561957F4F8F4FB0
S1130D009F4FF0683F2E2AE030E0A3010E941C09A7
S1130D10882E861845C0853731F4232D2F7EB22EB8
S1130D202AE030E025C0932D997FB92E8F36C1F08B
S1130D3018F4883579F0B5C0803719F0883721F078
S1130D40B0C0E92FE061BE2EB4FE0DC0FB2DF460EF
S1130D50BF2E09C034FE0AC0292F2660B22E06C059
S1130D6028E030E005C020E130E002C020E132E0BC
S1130D70F801B7FE07C060817181828193810C5FA5
S1130D801F4F06C06081718180E090E00E5F1F4FAD
S1130D90A3010E941C09882E8618FB2DFF773F2E85
S1130DA036FE0DC0232D2E7FA22E891458F434FE56
S1130DB00BC032FC09C0832D8E7EA82E05C0B82C32
S1130DC0A32C03C0B82C01C0B92CA4FE0FC0FE0193
S1130DD0E80DF11D8081803321F49A2D997EA92E8E
S1130DE009C0A2FE06C0B394B39404C08A2D8678C9
S1130DF009F0B394A3FC11C0A0FE06C0B21488F499
S1130E00280C922C9B180EC0B21460F4B60180E238
S1130E1090E00E94E008B394F7CFB21418F42B18B2
S1130E2002C0982C212CA4FE10C0B60180E390E0EF
S1130E300E94E008A2FE17C0A1FC03C088E790E06E
S1130E4002C088E590E0B6010CC08A2D867859F07E
S1130E50A1FE02C08BE201C080E2A7FC8DE2B601D4
S1130E6090E00E94E008891438F4B60180E390E031
S1130E700E94E0089A94F7CF8A94F301E80DF11DDB
S1130E808081B60190E00E94E0088110F5CF222015
S1130E9009F442CEB60180E290E00E94E0082A9470
S1130EA0F6CFF6018681978102C08FEF9FEF2B96D4
S1130EB0E2E10C94E20AA0E0B0E0E1E6F7E00C9491
S1130EC0CC0AEC016B016115710519F0FB019183EA
S1130ED080837E01FFEFEF1AFF0A0881802F90E0E4
S1130EE00E94A908892B11F0E701F3CF0D3239F4E0
S1130EF07E0182E0E80EF11C098111E008C00B328A
S1130F0029F47E0192E0E90EF11C098110E0E70169
S1130F10219743E050E06CE570E0CE010E94B208F6
S1130F20892BC1F4239645E050E067E570E0CE01DB
S1130F300E94B208892B09F42596C114D10419F032
S1130F40F601D183C0831111F6C060E070E080E83F
S1130F509FE7FAC043E050E064E570E0CE010E94F0
S1130F60B208892B59F4C114D10409F4E9C0F2E0A0
S1130F70EF0EF11CF601F182E082E2C020E030E0E5
S1130F80A901C0E0D0E0F70180EDA82EA00E89E011
S1130F908A1530F1912F9260B92E812F887012FF3B
S1130FA004C0811124C0219622C081112197A5E09B
S1130FB0B0E00E94BB0ADC01CB01880F991FAA1F75
S1130FC0BB1F9C01AD012A0D311D411D511D283946
S1130FD089E93807480789E1580748F0166006C0D0
S1130FE09EEFA9120AC013FD40C01860B12E8FEF06
S1130FF0E81AF80A00811B2DC6CF802F8F7D853417
S1131000A1F580818D3211F4106106C08B3221F07C
S1131010319661E070E004C08181329662E070E054
S113102080538A3018F0E61BF70B1FC060E070E0B5
S113103060389CE079075CF4DB01AA0FBB1FAA0FA0
S1131040BB1F6A0F7B1F660F771F680F711D3196D8
S1131050DF0111978C9180538A3050F314FF03C041
S1131060719561957109C60FD71F11FF08C0C1148E
S1131070D10429F0CF010197F60191838083CA013D
S1131080B9010E947F09212F2370233019F04B01ED
S11310905C0106C04B015C01B7FAB094B7F8B09498
S11310A020E030E0A901C501B4010E947A09882337
S11310B009F43EC0D7FF06C0D195C195D10903E715
S11310C010E002C00BE810E06801F8E1CF1AD10883
S11310D090E2E92EF12CCE15DF0574F0F80125918C
S11310E0359145915491C501B4010E94E0094B0129
S11310F05C01CE19DF09EFCF04501109F594E79490
S11311000C151D0541F78A2D880F8B2D881F8F3FE5
S113111049F020E030E0A901C501B4010E947A0938
S1131120811106C082E290E090937A038093790360
S1131130C501B40109C060E070E080E89FEF04C01D
S113114060E070E080EC9FE7CDB7DEB7ECE00C9494
S1131150E80A91110C944D0A803219F08950855097
S1131160C8F70895FB01DC014150504088F08D918F
S113117081341CF08B350CF4805E659161341CF075
S11311806B350CF4605E861B611171F3990B089545
S1131190881BFCCFFC010590615070400110D8F70A
S11311A0809590958E0F9F1F0895FC0161507040AB
S11311B001900110D8F7809590958E0F9F1F089588
S11311C00F931F93CF93DF93FB01238121FD03C072
S11311D08FEF9FEF2CC022FF16C0468157812481D8
S11311E035814217530744F4A081B1819D012F5FDB
S11311F03F4F318320838C93268137812F5F3F4F6C
S11312003783268314C08B01EC01FB010084F18534
S1131210E02D0995892BE1F6D80116968D919C91C4
S11312201797019617969C938E931697CE01DF918C
S1131230CF911F910F910895FA01AA27283051F1F7
S1131240203181F1E8946F936E7F6E5F7F4F8F4FF3
S11312509F4FAF4FB1E03ED0B4E03CD0670F781F52
S1131260891F9A1FA11D680F791F8A1F911DA11D37
S11312706A0F711D811D911DA11D20D009F4689470
S11312803F912AE0269F11243019305D3193DEF618
S1131290CF010895462F4770405D4193B3E00FD0CE
S11312A0C9F7F6CF462F4F70405D4A3318F0495DB9
S11312B031FD4052419302D0A9F7EACFB4E0A6959C
S11312C09795879577956795BA95C9F700976105BE
S11312D0710508959B01AC010A2E06945795479514
S11312E037952795BA95C9F7620F731F841F951F09
S11312F0A01D08950E94BC0908F481E00895E894B3
S113130009C097FB3EF490958095709561957F4F49
S11313108F4F9F4F9923A9F0F92F96E9BB279395F7
S1131320F695879577956795B795F111F8CFFAF407
S1131330BB0F11F460FF1BC06F5F7F4F8F4F9F4F38
S113134016C0882311F096E911C0772321F09EE896
S1131350872F762F05C0662371F096E8862F70E0FC
S113136060E02AF09A95660F771F881FDAF7880FD6
S11313709695879597F90895990F0008550FAA0B2C
S1131380E0E8FEEF16161706E807F907C0F0121694
S11313901306E407F50798F0621B730B840B950B97
S11313A039F40A2661F0232B242B252B21F40895EC
S11313B00A2609F4A140A6958FEF811D811D089589
S11313C00E94F3090C94670A0E94590A38F00E949B
S11313D0600A20F0952311F00C94500A0C94560ADC
S11313E011240C949B0A0E94780A70F3959FC1F310
S11313F0950F50E0551F629FF001729FBB27F00DBF
S1131400B11D639FAA27F00DB11DAA1F649F662713
S1131410B00DA11D661F829F2227B00DA11D621F62
S1131420739FB00DA11D621F839FA00D611D221F1C
S1131430749F3327A00D611D231F849F600D211D00
S1131440822F762F6A2F11249F5750409AF0F1F083
S113145088234AF0EE0FFF1FBB1F661F771F881FEC
S113146091505040A9F79E3F510580F00C94500ACA
S11314700C949B0A5F3FE4F3983ED4F386957795EA
S11314806795B795F795E7959F5FC1F7FE2B880F92
S1131490911D9695879597F908959927882708951A
S11314A097F99F6780E870E060E008959FEF80EC13
S11314B0089500240A9416161706180609060895B6
S11314C000240A9412161306140605060895092E1C
S11314D00394000C11F4882352F0BB0F40F4BF2B8B
S11314E011F460FF04C06F5F7F4F8F4F9F4F0895CB
S11314F057FD9058440F551F59F05F3F71F04795C1
S1131500880F97FB991F61F09F3F79F087950895A5
S1131510121613061406551FF2CF4695F1DF08C0C4
S1131520161617061806991FF1CF869571056105E1
S113153008940895E894BB2766277727CB0197F989
S11315400895242F0E94AF0A252F0E94AF0A0C94FD
S1131550A90A0E94AE0A272F0C94AF0A262FE199FC
S1131560FECF9FBB8EBB2DBB0FB6F894E29AE19AD7
S11315700FBE019608950E94FD0AA59F900DB49F89
S1131580900DA49F800D911D112408952F923F92D8
S11315904F925F926F927F928F929F92AF92BF927F
S11315A0CF92DF92EF92FF920F931F93CF93DF932B
S11315B0CDB7DEB7CA1BDB0B0FB6F894DEBF0FBE88
S11315C0CDBF09942A88398848885F846E847D84D5
S11315D08C849B84AA84B984C884DF80EE80FD80D7
S11315E00C811B81AA81B981CE0FD11D0FB6F8944D
S11315F0DEBF0FBECDBFED010895A29FB001B39F22
S1131600C001A39F700D811D1124911DB29F700D07
S10F1610811D1124911D0895F894FFCF52
S113161CF3010109090109090941542B4950523DAF
S113162C343830300D00415426770D004154563077
S113163C0D0041542B434C54533D310D0041542B5C
S113164C434D47463D310D0041542B434E4D493DCE
S113165C312C322C302C302C300D0041542B434384
S113166C4C4B3F0D0041542B434D47533D222573A6
S113167C220D00416C61726D203031206F636375F3
S113168C727265640D00416C61726D203032206F92
S113169C636375727265640D000D253032643A25EE
S11316AC3032643A253032640D005354005365745F
S11316BC74696E672054696D652E2E0D0054696D26
S11316CC652073657420617420253032643A2530AA
S11316DC32643A253032640D004131005365747420
S11316EC696E6720416C61726D20312E2E0D0041A4
S11316FC6C61726D20312073657420617420253007
S113170C32643A253032643A253032640D00413269
S113171C0053657474696E6720416C61726D20327C
S113172C2E2E0D00416C61726D2032207365742075
S113173C617420253032643A253032640D005754DC
S113174C0054696D6520697320253032643A253064
S113175C32643A2530326400534D53002B434D54BC
S113176C3A002B43434C4B3A0053796E63696E67D2
S113177C2054696D652E2E0D00425454004254536E
S113178C00434F4D004C6174657820726561647937
S113179C20666F7220636F6C6C656374696F6E2E58
S11317AC2E2E002B39343132333435363738390058
S9030000FC
