S01300004152544D544D53696D756C2E7372656332
S11300000C942A000C9499000C9449020C94470017
S11300100C9447000C9447000C9447000C94C100C6
S11300200C9447000C9447000C9447000C94470030
S11300300C9447000C948B020C9447000C944700DA
S11300400C9447000C9447000C9447000C94470010
S11300500C94470011241FBECFE5D8E0DEBFCDBF0E
S113006010E0A0E6B0E0E8EFFEE002C005900D92DB
S1130070A837B107D9F720E0A8E7B0E001C01D9286
S1130080AB37B207E1F70E94C5010C947A070C94D0
S1130090000010BC8CE089B98AB188698AB986E805
S11300A080BD08955D9BFECF8CB90895CF93DF93F7
S11300B0EC0103C021960E94520088818111FACF7D
S11300C0DF91CF91089589B7806189BF82B3806140
S11300D082BB25E02A95F1F782B38F7E82BB85E04F
S11300E08A95F1F780916000909161000196D1F3B7
S11300F02091600030916100AFE9B6E40E946D0484
S1130100929582958F7089279F70892780937900B3
S113011089B78F7E89BF8FEF9FEF909361008093A3
S1130120600081E0909179009F3008F080E090E0D9
S113013008951F920F920FB60F9211248F939F93DD
S113014080917A0081110BC083E08BBD86E68ABD65
S11301508EB581608EBD81E080937A000BC01EBC99
S11301608CB59DB590936100809360001DBC1CBC50
S113017010927A009F918F910F900FBE0F901F9055
S113018018951F920F920FB60F9211248F939F937D
S11301901EBC86E693E090936100809360001DBCD2
S11301A01CBC10927A009F918F910F900FBE0F90FC
S11301B01F90189587E886B980EC87B908958770F1
S11301C0806C87B986B1806486B9349BFECF86B1D2
S11301D0806186B989EF90E00197F1F700C00000D3
S11301E064B175B180E090E00E943C032AE037EDF1
S11301F043E250E40E94A2030E940603CB01089547
S113020086B18F7786B9089584B3826084BB85B341
S1130210826085BB85B38E7F85BB84B38D7F84BBB1
S11302209999FECF90E040E050E0BA0111C085B347
S1130230816085BB440F551F661F771F85B38E7F72
S113024085BB999904C04F5F5F4F6F4F7F4F9F5F8E
S1130250983168F385B3816085BB000085B38E7FD8
S113026085BBCB01BA016F5F7F4F8F4F9F4F29EE44
S113027031E540E050E00E944B04CA01B901089501
S113028088B3816088BB80E792E00197F1F700C0F2
S1130290000088B38E7F88BB9FEF2AE187EB9150E3
S11302A020408040E1F700C0000088B3816088BB33
S11302B089EF90E00197F1F700C0000088B38E7FCA
S11302C088BB089588B3886088BB80E792E0019773
S11302D0F1F700C0000088B3877F88BB089588B316
S11302E0886088BB89EF90E00197F1F700C00000B7
S11302F088B3877F88BB089585B3886485BB2FE75F
S11303008AE196E0215080409040E1F700C000006F
S113031085B3877B85BB85B3886185BB2FE78AE17D
S113032096E0215080409040E1F700C0000085B382
S1130330877E85BB85B3806385BB2FE78AE196E022
S1130340215080409040E1F700C0000085B38F7CCD
S113035085BB85B3806685BB2FE78AE196E0215093
S113036080409040E1F700C0000085B38F7985BBE1
S1130370089583E085BB2FE78AE196E02150804011
S11303809040E1F700C0000008958AB38C7F8ABBD7
S11303908BB38C7F8BBB8FEF87BB18BA84BB15BA2A
S11303A089E481BB86E082BB0E94490085B78160F5
S11303B085BF85B7846085BF7894FFCF88B382609A
S11303C088BB0E94620102C00E947C019F99FCCFFD
S11303D00E94B9010E946F0188B38D7F88BB089584
S11303E0CF93DF93EC010E94DA0080E00E94DF00EB
S11303F06AE070E00E9437047983688381E00E9498
S1130400DF009B838A830E940001DF91CF910895CE
S1130410CF92DF92EF92FF920F931F93CF93DF93CC
S11304200E940401EB012FE78AE196E0215080400D
S11304309040E1F700C000000CC00E940401EB01F1
S11304402FE78AE196E0215080409040E1F700C018
S113045000000E9404018E01DD0F220B330B6801A2
S11304607901C61AD70AE80AF90A2BEFC2162FEF48
S1130470D206E206F20608F382E690E00E945600F5
S1130480DF91CF911F910F91FF90EF90DF90CF906C
S113049008951F920F920FB60F9211242F933F933A
S11304A04F935F936F937F938F939F93AF93BF9378
S11304B0EF93FF9382B3806882BB8AB78F7B8ABF36
S11304C08BB780648BBF78942FE78AE196E0215044
S11304D080409040E1F700C0000082B38F7782BB78
S11304E00E946300892B11F00E9440018BB78F7B1F
S11304F08BBFF894FF91EF91BF91AF919F918F9132
S11305007F916F915F914F913F912F910F900FBE0B
S11305100F901F9018951F920F920FB60F921124EF
S11305200F931F932F933F934F935F936F937F93F7
S11305308F939F93AF93BF93EF93FF93CF93DF93E7
S1130540CDB7DEB76897DEBFCDBF8CB1809378009E
S1130550813389F4109278000E94DE018AB78F7784
S11305608ABF8BB780688BBF78940E9408028BB7D0
S11305708F778BBFF89480917800823361F5109265
S11305807800CE0145960E94F0018E898F938D8963
S11305908F9387E690E09F938F938E010F5F1F4F99
S11305A01F930F930E949004C8010E945600888DE7
S11305B08F938F898F938FE690E09F938F931F93F0
S11305C00F930E949004C8010E9456000FB6F8943D
S11305D0DEBF0FBECDBF68960FB6F894DEBF0FBE68
S11305E0CDBFDF91CF91FF91EF91BF91AF919F91DB
S11305F08F917F916F915F914F913F912F911F91B7
S11306000F910F900FBE0F901F9018950E940D032D
S11306106894B1110C949C0308950E94810388F09E
S11306209F5798F0B92F9927B751B0F0E1F0660FB2
S1130630771F881F991F1AF0BA95C9F714C0B130F3
S113064091F00E949B03B1E008950C949B03672FE3
S1130650782F8827B85F39F0B93FCCF38695779522
S11306606795B395D9F73EF490958095709561950B
S11306707F4F8F4F9F4F0895E89409C097FB3EF436
S113068090958095709561957F4F8F4F9F4F9923DB
S1130690A9F0F92F96E9BB279395F6958795779559
S11306A06795B795F111F8CFFAF4BB0F11F460FF19
S11306B01BC06F5F7F4F8F4F9F4F16C0882311F071
S11306C096E911C0772321F09EE8872F762F05C085
S11306D0662371F096E8862F70E060E02AF09A9520
S11306E0660F771F881FDAF7880F9695879597F915
S11306F0089557FD9058440F551F59F05F3F71F00E
S11307004795880F97FB991F61F09F3F79F0879574
S11307100895121613061406551FF2CF4695F1DFFD
S113072008C0161617061806991FF1CF869571058D
S1130730610508940895E894BB2766277727CB01C1
S113074097F908950E94B5030C9426040E94180496
S113075038F00E941F0420F0952311F00C940F042C
S11307600C94150411240C949C030E94790370F3D7
S1130770959FC1F3950F50E0551F629FF001729F42
S1130780BB27F00DB11D639FAA27F00DB11DAA1F51
S1130790649F6627B00DA11D661F829F2227B00D9E
S11307A0A11D621F739FB00DA11D621F839FA00D29
S11307B0611D221F749F3327A00D611D231F849F79
S11307C0600D211D822F762F6A2F11249F575040D0
S11307D09AF0F1F088234AF0EE0FFF1FBB1F661F4B
S11307E0771F881F91505040A9F79E3F510580F014
S11307F00C940F040C949C035F3FE4F3983ED4F3F1
S1130800869577956795B795F795E7959F5FC1F7B7
S1130810FE2B880F911D9695879597F9089597F962
S11308209F6780E870E060E008959FEF80EC089592
S113083000240A94161617061806090608950024BB
S11308400A9412161306140605060895092E039435
S1130850000C11F4882352F0BB0F40F4BF2B11F4A9
S113086060FF04C06F5F7F4F8F4F9F4F089597FBCA
S1130870072E16F4009407D077FD09D00E947C045B
S113088007FC05D03EF4909581959F4F089570958F
S113089061957F4F0895A1E21A2EAA1BBB1BFD018F
S11308A00DC0AA1FBB1FEE1FFF1FA217B307E4074B
S11308B0F50720F0A21BB30BE40BF50B661F771FA3
S11308C0881F991F1A9469F7609570958095909583
S11308D09B01AC01BD01CF010895A29FB001B39F5C
S11308E0C001A39F700D811D1124911DB29F700D35
S11308F0811D1124911D0895AA1BBB1B51E107C042
S1130900AA1FBB1FA617B70710F0A61BB70B881F9B
S1130910991F5A95A9F780959095BC01CD0108952A
S1130920AEE0B0E0E6E9F4E00C9451070D891E89CD
S113093086E08C831A8309838FEF9FE79E838D83E0
S1130940AE01475E5F4F6F89788DCE0101960E949C
S1130950B204EF81F885E00FF11F10822E96E4E0D7
S11309600C946D07ABE0B0E0E8EBF4E00C944307C3
S11309706C017B018A01FC0117821682838181FF4D
S1130980CCC1CE0101963C01F6019381F70193FDA0
S1130990859193FF81917F01882309F4BAC185323F
S11309A039F493FD859193FF81917F01853229F478
S11309B0B60190E00E94A906E7CF912C212C312C9E
S11309C0FFE1F315D8F08B3279F038F4803279F006
S11309D08332A1F4232D20611DC08D3261F0803358
S11309E069F4232D216016C0832D8260382EE32DF7
S11309F0E4603E2E2AC0F32DF8601DC037FC2DC0E4
S1130A0020ED280F2A3040F08E32B9F436FC81C133
S1130A10232D2064322E19C036FE06C08AE0989E2B
S1130A20200D1124922E11C0EAE02E9E200D1124D7
S1130A30222EF32DF0623F2E08C08C3621F4832D34
S1130A408068382E02C0883641F4F70193FD859101
S1130A5093FF81917F018111B3CF982F9F7D95548E
S1130A60933028F40C5F1F4F9FE399830DC08336A6
S1130A7031F0833771F0833509F059C021C0F80192
S1130A80808189830E5F1F4F88248394912C5301A6
S1130A9013C02801F2E04F0E511CF801A080B18070
S1130AA036FE03C0692D70E002C06FEF7FEFC50111
S1130AB00E949E064C018201F32DFF773F2E16C043
S1130AC0280122E0420E511CF801A080B18036FEBC
S1130AD003C0692D70E002C06FEF7FEFC5010E9473
S1130AE093064C01F32DF0683F2E820133FC1BC0AA
S1130AF0822D90E088169906B0F4B60180E290E069
S1130B000E94A9062A94F4CFF50137FC859137FE9B
S1130B1081915F01B60190E00E94A90621102A94F8
S1130B2021E0821A91088114910471F7E8C0843697
S1130B3011F0893641F5F80137FE07C060817181F3
S1130B40828193810C5F1F4F08C060817181072EE1
S1130B50000C880B990B0E5F1F4FF32DFF763F2E71
S1130B6097FF09C090958095709561957F4F8F4F41
S1130B709F4FF0683F2E2AE030E0A3010E94E50673
S1130B80882E861845C0853731F4232D2F7EB22E4A
S1130B902AE030E025C0932D997FB92E8F36C1F01D
S1130BA018F4883579F0B5C0803719F0883721F00A
S1130BB0B0C0E92FE061BE2EB4FE0DC0FB2DF46081
S1130BC0BF2E09C034FE0AC0292F2660B22E06C0EB
S1130BD028E030E005C020E130E002C020E132E04E
S1130BE0F801B7FE07C060817181828193810C5F37
S1130BF01F4F06C06081718180E090E00E5F1F4F3F
S1130C00A3010E94E506882E8618FB2DFF773F2E50
S1130C1036FE0DC0232D2E7FA22E891458F434FEE7
S1130C200BC032FC09C0832D8E7EA82E05C0B82CC3
S1130C30A32C03C0B82C01C0B92CA4FE0FC0FE0124
S1130C40E80DF11D8081803321F49A2D997EA92E1F
S1130C5009C0A2FE06C0B394B39404C08A2D86785A
S1130C6009F0B394A3FC11C0A0FE06C0B21488F42A
S1130C70280C922C9B180EC0B21460F4B60180E2CA
S1130C8090E00E94A906B394F7CFB21418F42B187D
S1130C9002C0982C212CA4FE10C0B60180E390E081
S1130CA00E94A906A2FE17C0A1FC03C088E790E039
S1130CB002C088E590E0B6010CC08A2D867859F010
S1130CC0A1FE02C08BE201C080E2A7FC8DE2B60166
S1130CD090E00E94A906891438F4B60180E390E0FC
S1130CE00E94A9069A94F7CF8A94F301E80DF11DA6
S1130CF08081B60190E00E94A9068110F5CF2220E0
S1130D0009F442CEB60180E290E00E94A9062A943A
S1130D10F6CFF6018681978102C08FEF9FEF2B9665
S1130D20E2E10C945F07FC010590615070400110F2
S1130D30D8F7809590958E0F9F1F0895FC01615000
S1130D40704001900110D8F7809590958E0F9F1FE9
S1130D5008950F931F93CF93DF93FB01238121FD0C
S1130D6003C08FEF9FEF2CC022FF16C0468157812E
S1130D70248135814217530744F4A081B1819D0138
S1130D802F5F3F4F318320838C93268137812F5FE0
S1130D903F4F3783268314C08B01EC01FB01008491
S1130DA0F185E02D0995892BE1F6D80116968D91F0
S1130DB09C911797019617969C938E931697CE0144
S1130DC0DF91CF911F910F910895FA01AA2728303E
S1130DD051F1203181F1E8946F936E7F6E5F7F4F04
S1130DE08F4F9F4FAF4FB1E03ED0B4E03CD0670F80
S1130DF0781F891F9A1FA11D680F791F8A1F911DD3
S1130E00A11D6A0F711D811D911DA11D20D009F422
S1130E1068943F912AE0269F11243019305D319364
S1130E20DEF6CF010895462F4770405D4193B3E04D
S1130E300FD0C9F7F6CF462F4F70405D4A3318F0F4
S1130E40495D31FD4052419302D0A9F7EACFB4E0A5
S1130E50A6959795879577956795BA95C9F700975D
S1130E606105710508959B01AC010A2E06945795FE
S1130E70479537952795BA95C9F7620F731F841F55
S1130E80951FA01D08952F923F924F925F926F92EB
S1130E907F928F929F92AF92BF92CF92DF92EF9206
S1130EA0FF920F931F93CF93DF93CDB7DEB7CA1B87
S1130EB0DB0B0FB6F894DEBF0FBECDBF09942A88B2
S1130EC0398848885F846E847D848C849B84AA845A
S1130ED0B984C884DF80EE80FD800C811B81AA81E7
S1130EE0B981CE0FD11D0FB6F894DEBF0FBECDBFB2
S10B0EF0ED010895F894FFCF11
S1130EF8FFFF434F4D0D004254542025640D00421A
S10B0F0854532025640D000080
S9030000FC
